{
  "contractName": "Storage",
  "abi": [
    {
      "inputs": [],
      "stateMutability": "payable",
      "type": "constructor",
      "payable": true
    },
    {
      "inputs": [],
      "name": "getBalance",
      "outputs": [
        {
          "internalType": "uint256",
          "name": "",
          "type": "uint256"
        }
      ],
      "stateMutability": "view",
      "type": "function",
      "constant": true
    },
    {
      "inputs": [
        {
          "internalType": "uint256",
          "name": "x",
          "type": "uint256"
        }
      ],
      "name": "set",
      "outputs": [],
      "stateMutability": "nonpayable",
      "type": "function"
    },
    {
      "inputs": [],
      "name": "get",
      "outputs": [
        {
          "internalType": "uint256",
          "name": "",
          "type": "uint256"
        }
      ],
      "stateMutability": "view",
      "type": "function",
      "constant": true
    }
  ],
  "bytecode": "0x608060405260003073ffffffffffffffffffffffffffffffffffffffff163460405161002a90610101565b60006040518083038185875af1925050503d8060008114610067576040519150601f19603f3d011682016040523d82523d6000602084013e61006c565b606091505b50509050806100b0576040517f08c379a00000000000000000000000000000000000000000000000000000000081526004016100a790610173565b60405180910390fd5b6100c0600c6100c660201b60201c565b50610193565b8060008190555050565b600081905092915050565b50565b60006100eb6000836100d0565b91506100f6826100db565b600082019050919050565b600061010c826100de565b9150819050919050565b600082825260208201905092915050565b7f7472616e73666572206661696c73000000000000000000000000000000000000600082015250565b600061015d600e83610116565b915061016882610127565b602082019050919050565b6000602082019050818103600083015261018c81610150565b9050919050565b610181806101a26000396000f3fe608060405234801561001057600080fd5b50600436106100415760003560e01c806312065fe01461004657806360fe47b1146100645780636d4ce63c14610080575b600080fd5b61004e61009e565b60405161005b91906100d2565b60405180910390f35b61007e6004803603810190610079919061011e565b6100a6565b005b6100886100b0565b60405161009591906100d2565b60405180910390f35b600047905090565b8060008190555050565b60008054905090565b6000819050919050565b6100cc816100b9565b82525050565b60006020820190506100e760008301846100c3565b92915050565b600080fd5b6100fb816100b9565b811461010657600080fd5b50565b600081359050610118816100f2565b92915050565b600060208284031215610134576101336100ed565b5b600061014284828501610109565b9150509291505056fea2646970667358221220d4ca2026e88c7adb1b2373f5c56a464c7817793edc1927ebdf9c3f9a62b214dd64736f6c63430008110033",
  "immutableReferences": {},
  "source": "// SPDX-License-Identifier: GPL-3.0\npragma solidity >=0.4.16 <0.9.0;\n\ncontract Storage {\n    uint storedData;\n    address Owner;\n\n    constructor() payable {\n        (bool success, )= address(this).call{value: msg.value}(\"\");\n        require (success, \"transfer fails\");\n        set(12);\n    }\n\n    function getBalance() external view returns(uint){\n        return address(this).balance;\n    }\n\n\n    function set(uint x) public {\n        storedData = x;\n    }\n\n    function get() public view returns (uint) {\n        return storedData;\n    }\n}",
  "sourcePath": "/Users/pareja/CoursAlyra/TruffleCours/contracts/Storage.sol",
  "compiler": {
    "name": "solc",
    "version": "0.8.17+commit.8df45f5f.Emscripten.clang"
  },
  "schemaVersion": "3.4.10",
  "updatedAt": "2023-05-31T09:56:33.573Z",
  "networkType": "ethereum",
  "devdoc": {
    "kind": "dev",
    "methods": {},
    "version": 1
  },
  "userdoc": {
    "kind": "user",
    "methods": {},
    "version": 1
  }
}